:020000040800F2
:1000000000000320811700088112000883120008F5
:1000100085120008871200088912000800000000FD
:100020000000000000000000000000008B1200082B
:100030008D120008000000008F12000891120008C5
:10004000C9170008C9170008C9170008C917000810
:10005000C9170008C9170008C9170008C917000800
:10006000C9170008C9170008C9170008C9170008F0
:10007000C9170008C9170008C9170008C9170008E0
:10008000C9170008C9170008C9170008C9170008D0
:10009000C9170008C9170008C9170008C9170008C0
:1000A000C9170008C9170008C9170008C9170008B0
:1000B000C9170008C9170008C9170008C9170008A0
:1000C000C9170008C9170008C9170008C917000890
:1000D000C9170008C9170008C9170008C917000880
:1000E000C9170008C9170008C9170008C917000870
:1000F000C9170008C9170008C9170008C917000860
:10010000C9170008C9170008C9170008C91700084F
:10011000C9170008C9170008C9170008C91700083F
:10012000C9170008C9170008C9170008C91700082F
:10013000C9170008C9170008C9170008C91700081F
:10014000C9170008C9170008C9170008C91700080F
:10015000C9170008C9170008C9170008C9170008FF
:10016000C9170008C9170008C9170008C9170008EF
:10017000C9170008C9170008C917000800000000C7
:10018000C9170008C9170008C9170008C9170008CF
:10019000C9170008C9170008C917000800000000A7
:0C01A000C9170008C9170008C91700089B
:1001B000034613F8012B002AFBD1181A01387047A7
:1001C00001F0FF01102A2BDB10F0070F08D010F808
:1001D000013B013A8B422DD010F0070F42B3F6D10C
:1001E000F0B441EA012141EA014122F007047FF025
:1001F00000070023F0E80256083C85EA010586EA7C
:10020000010685FA47F5A3FA87F586FA47F6A5FAB7
:1002100087F68EB9EED1F0BC01F0FF0102F00702C3
:1002200032B110F8013B013A83EA010313B1F8D16E
:100230000020704701387047002D06BF354603384F
:10024000073815F0010F07D1013015F4807F02BF88
:10025000013015F4C03F0130F0BC0138704700BFD9
:1002600081F0004102E000BF83F0004330B54FEA67
:1002700041044FEA430594EA050F08BF90EA020FD4
:100280001FBF54EA000C55EA020C7FEA645C7FEA67
:10029000655C00F0E2804FEA5454D4EB5555B8BF8A
:1002A0006D420CDD2C4480EA020281EA030382EAFB
:1002B000000083EA010180EA020281EA0303362D8D
:1002C00088BF30BD11F0004F4FEA01314FF4801C60
:1002D0004CEA113102D0404261EB410113F0004F72
:1002E0004FEA03334CEA133302D0524263EB430329
:1002F00094EA050F00F0A780A4F10104D5F1200EC7
:100300000DDB02FA0EFC22FA05F2801841F1000121
:1003100003FA0EF2801843FA05F359410EE0A5F1F5
:1003200020050EF1200E012A03FA0EFC28BF4CF026
:10033000020C43FA05F3C01851EBE37101F00045DC
:1003400007D54FF0000EDCF1000C7EEB00006EEBE9
:100350000101B1F5801F1BD3B1F5001F0CD3490873
:100360005FEA30004FEA3C0C04F101044FEA4452CA
:1003700012F5800F80F09A80BCF1004F08BF5FEA51
:10038000500C50F1000041EB045141EA050130BD31
:100390005FEA4C0C404141EB0101013C28BFB1F543
:1003A000801FE9D291F0000F04BF01460020B1FA8E
:1003B00081F308BF2033A3F10B03B3F120020CDA61
:1003C0000C3208DD02F1140CC2F10C0201FA0CF03F
:1003D00021FA02F10CE002F11402D8BFC2F1200CA4
:1003E00001FA02F120FA0CFCDCBF41EA0C0190405A
:1003F000E41AA2BF01EB0451294330BD6FEA0404A3
:100400001F3C1CDA0C340EDC04F11404C4F120028D
:1004100020FA04F001FA02F340EA030021FA04F39F
:1004200045EA030130BDC4F10C04C4F1200220FAF6
:1004300002F001FA04F340EA0300294630BD21FA34
:1004400004F0294630BD94F0000F83F4801306BFFA
:1004500081F480110134013D4EE77FEA645C18BFEE
:100460007FEA655C29D094EA050F08BF90EA020F85
:1004700005D054EA000C04BF1946104630BD91EA7D
:10048000030F1EBF0021002030BD5FEA545C05D180
:100490004000494128BF41F0004130BD14F58004BF
:1004A0003CBF01F5801130BD01F0004545F0FE4133
:1004B00041F470014FF0000030BD7FEA645C1ABF68
:1004C000194610467FEA655C1CBF0B46024650EA9F
:1004D000013406BF52EA033591EA030F41F40021CB
:1004E00030BD00BF90F0000F04BF0021704730B551
:1004F0004FF4806404F132044FF000054FF0000126
:1005000050E700BF90F0000F04BF0021704730B5E6
:100510004FF4806404F1320410F0004548BF4042BB
:100520004FF000013EE700BF42004FEAE2014FEA10
:1005300031014FEA02701FBF12F07F4393F07F4FEB
:1005400081F06051704732F07F4208BF704793F0EE
:100550007F4F04BF41F40021704730B54FF4607401
:1005600001F0004521F000411CE700BF50EA010204
:1005700008BF704730B54FF000050AE050EA0102AD
:1005800008BF704730B511F0004502D5404261EB1D
:1005900041014FF4806404F132045FEA915C3FF45E
:1005A000D8AE4FF003025FEADC0C18BF03325FEAFB
:1005B000DC0C18BF033202EBDC02C2F1200300FAAC
:1005C00003FC20FA02F001FA03FE40EA0E0021FAD1
:1005D00002F11444BDE600BF70B54FF0FF0C4CF4BF
:1005E000E06C1CEA11541DBF1CEA135594EA0C0F71
:1005F00095EA0C0F00F0DEF82C4481EA030621EAAC
:100600004C5123EA4C5350EA013518BF52EA0335E6
:1006100041F4801143F4801338D0A0FB02CE4FF098
:100620000005E1FB02E506F00042E0FB03E54FF0C8
:100630000006E1FB03569CF0000F18BF4EF0010EC0
:10064000A4F1FF04B6F5007F64F5407404D25FEABC
:100650004E0E6D4146EB060642EAC62141EA55516F
:100660004FEAC52040EA5E504FEACE2EB4F1FD0CB1
:1006700088BFBCF5E06F1ED8BEF1004F08BF5FEA2F
:10068000500E50F1000041EB045170BD06F00046E1
:1006900046EA010140EA020081EA0301B4EB5C048E
:1006A000C2BFD4EB0C0541EA045170BD41F4801186
:1006B0004FF0000E013C00F3AB8014F1360FDEBFAB
:1006C000002001F0004170BDC4F10004203C35DA87
:1006D0000C341BDC04F11404C4F1200500FA05F30A
:1006E00020FA04F001FA05F240EA020001F00042AB
:1006F00021F0004110EBD37021FA04F642EB060121
:100700005EEA430E08BF20EAD37070BDC4F10C044A
:10071000C4F1200500FA04F320FA05F001FA04F20E
:1007200040EA020001F0004110EBD37041F10001FA
:100730005EEA430E08BF20EAD37070BDC4F1200505
:1007400000FA05F24EEA020E20FA04F301FA05F26D
:1007500043EA020321FA04F001F0004121FA04F215
:1007600020EA020000EBD3705EEA430E08BF20EAE5
:10077000D37070BD94F0000F0FD101F0004640001F
:1007800041EB010111F4801F08BF013CF7D041EAA1
:10079000060195F0000F18BF704703F000465200A5
:1007A00043EB030313F4801F08BF013DF7D043EA76
:1007B0000603704794EA0C0F0CEA135518BF95EA2C
:1007C0000C0F0CD050EA410618BF52EA4306D1D1B3
:1007D00081EA030101F000414FF0000070BD50EAD2
:1007E000410606BF1046194652EA430619D094EA5C
:1007F0000C0F02D150EA013613D195EA0C0F05D146
:1008000052EA03361CBF104619460AD181EA030199
:1008100001F0004141F0FE4141F470014FF0000051
:1008200070BD41F0FE4141F4780170BD70B54FF0EC
:10083000FF0C4CF4E06C1CEA11541DBF1CEA13556C
:1008400094EA0C0F95EA0C0F00F0A7F8A4EB05044E
:1008500081EA030E52EA03354FEA013100F0888045
:100860004FEA03334FF0805545EA131343EA12630E
:100870004FEA022245EA111545EA10654FEA0026C3
:100880000EF000419D4208BF964244F1FD0404F57C
:10089000407402D25B084FEA3202B61A65EB0305D8
:1008A0005B084FEA32024FF480104FF4002CB6EB95
:1008B000020E75EB030E22BFB61A754640EA0C0015
:1008C0005B084FEA3202B6EB020E75EB030E22BF55
:1008D000B61A754640EA5C005B084FEA3202B6EB96
:1008E000020E75EB030E22BFB61A754640EA9C0055
:1008F0005B084FEA3202B6EB020E75EB030E22BF25
:10090000B61A754640EADC0055EA060E18D04FEAE2
:10091000051545EA16754FEA06164FEAC30343EA82
:1009200052734FEAC2025FEA1C1CC0D111F4801F4F
:100930000BD141EA00014FF000004FF0004CB6E748
:1009400011F4801F04BF01430020B4F1FD0C88BFE7
:10095000BCF5E06F3FF6AFAEB5EB030C04BFB6EBF2
:10096000020C5FEA500C50F1000041EB045170BDE5
:100970000EF0004E4EEA113114EB5C04C2BFD4EB12
:100980000C0541EA045170BD41F480114FF0000E96
:10099000013C90E645EA060E8DE60CEA135594EA12
:1009A0000C0F08BF95EA0C0F3FF43BAF94EA0C0F15
:1009B0000AD150EA01347FF434AF95EA0C0F7FF48A
:1009C00025AF104619462CE795EA0C0F06D152EADE
:1009D00003353FF4FDAE1046194622E750EA4106C2
:1009E00018BF52EA43067FF4C5AE50EA41047FF4D3
:1009F0000DAF52EA43057FF4EBAE12E74FF0FF3C38
:100A000006E000BF4FF0010C02E000BF4FF0010C08
:100A10004DF804CD4FEA410C7FEA6C5C4FEA430C81
:100A200018BF7FEA6C5C1BD001B050EA410C0CBFD0
:100A300052EA430C91EA030F02BF90EA020F002032
:100A4000704710F1000F91EA030F58BF994208BF99
:100A500090422CBFD8176FEAE37040F00100704756
:100A60004FEA410C7FEA6C5C02D150EA013C07D1AD
:100A70004FEA430C7FEA6C5CD6D152EA033CD3D0F8
:100A80005DF8040B704700BF8446104662468C46F2
:100A90001946634600E000BF01B5FFF7B7FF002825
:100AA00048BF10F1000F01BD4DF808EDFFF7F4FF4E
:100AB0000CBF012000205DF808FB00BF4DF808EDD9
:100AC000FFF7EAFF34BF012000205DF808FB00BFFC
:100AD0004DF808EDFFF7E0FF94BF012000205DF81E
:100AE00008FB00BF4DF808EDFFF7CEFF94BF0120D3
:100AF00000205DF808FB00BF4DF808EDFFF7C4FFCC
:100B000034BF012000205DF808FB00BF4FEA410C14
:100B10007FEA6C5C02D150EA013C0AD14FEA430CF7
:100B20007FEA6C5C02D152EA033C02D14FF0000034
:100B300070474FF0010070474FEA410212F5001272
:100B400015D211D56FF47873B3EB625212D94FEA14
:100B5000C12343F0004343EA505311F0004F23FAFE
:100B600002F018BF404270474FF00000704750EA53
:100B7000013005D111F0004008BF6FF00040704710
:100B80004FF00000704700BF10B5054C237833B913
:100B9000044B13B10448AFF300800123237010BD50
:100BA000D4010020000000008043000808B5034B7A
:100BB0001BB103490348AFF3008008BD00000000EB
:100BC000D8010020804300082DE9F0430568C4687F
:100BD00000264FF0010E4FF003080EFA06F71F42F1
:100BE0000DD0770008FA07FC01FA07F925EA0C0591
:100BF00024EA0C0402FA07F749EA05053C430136EA
:100C0000102EEAD10560C460BDE8F0830129416877
:100C10000CBF19439943F0B5416081680024012657
:100C2000032706FA04F51D4207D0650007FA05FC04
:100C300021EA0C0102FA05F529430134102CF0D108
:100C40008160F0BDF0B5066A456A00234FF0010CE3
:100C50004FF00F0E0CFA03F4144207D09C000EFA6A
:100C600004F726EA070601FA04F426430133082BA9
:100C7000F0D100234FF0010C4FF00F0E03F10804E8
:100C80000CFA04F4144207D09C000EFA04F725EA8B
:100C9000070501FA04F425430133082BEED106625F
:100CA0004562F0BD08B5124B984211D003F5806340
:100CB000984214D0A3F50063984217D140F615006E
:100CC00000F0DCF840F61500BDE8084000F0D8B8A8
:100CD00040F6160000F0D2F840F61600F4E740F6B1
:100CE000170000F0CBF840F61700EDE708BD00BF95
:100CF00000580040F8B5054602200C46174600F0A3
:100D0000C1F8294A6E6803462848B3FBF0F09342C5
:100D100034BF01463C21264A26F03F060E4394424A
:100D20006E6016D801303B280DD93C222A6264003F
:100D3000B3FBF4F4042CEA6938BF0424C4F30B04B5
:100D40001443EC61F8BD022801D80222EEE72862C4
:100D5000EDE7184A9442F5D84FF4967251434FF498
:100D60007A72B1FBF2F101312962A7B904EB4404B4
:100D7000B3FBF4F4EB6923F48043EB61C4F30B039E
:100D80000BB944F00104EB6943F40043EB61EB69F8
:100D90002343EB61D6E719225443B3FBF4F4EB6928
:100DA00043F48043E9E700BF0087930340420F000C
:100DB000A0860100801A060010B50468C3F3090379
:100DC00024F002040C4313430460836010BD0368E5
:100DD00023F480630B430360704702320CBF21F0A1
:100DE000010141F0010101617047036843F0010313
:100DF00003607047036843F48073036070470368BF
:100E000043F4007303607047016170470069C0B22A
:100E100070478B0901F01F011858C84000F001000D
:100E2000704740F20153994210B502D1436983697A
:100E300010BD8C090122235801F01F018A4023EACA
:100E400002032350F4E7830903F1804303F50E33D3
:100E500000F01F001968012282400A431A6070479F
:100E6000830903F1804303F50E3300F01F001A6875
:100E70000121814022EA01021A607047FFF7E3BFB7
:100E8000FFF7EEBFF0B5354B89B0044604AD03F172
:100E900010061F46186859682A4603C20833B34231
:100EA0001546F7D1386971682D4A6B4603C303C3F1
:100EB000D2F80838C3F38103012B3FD0022B3FD176
:100EC000D2F80408D2F80418D2F80438D2F804286A
:100ED000244DC3F3014312F4800FC1F3881103F1D1
:100EE0000103214A00F03F004FEA430318BF2A469E
:100EF000B2FBF0F24A43B2FBF3F01949D1F80838DB
:100F0000D1F80828C2F3822220326A44C3F30313C3
:100F100012F8205CD1F8082820336B44C2F3423227
:100F2000203213F8103C6A4420FA03F312F8182C0C
:100F3000032C07D8DFE804F007090B0E0948DCE7AB
:100F40000948DAE7002009B0F0BD1846FBE723FAAC
:100F500005F0F8E723FA02F0F5E700BF9843000830
:100F60000030024040787D010024F40008B52D4B8C
:100F7000984250D017D8A3F53053984244D008D89F
:100F8000A3F5006398422AD003F5806398422DD0E0
:100F900008BD254B9842FBD140F61400FFF76EFFC9
:100FA00040F6140017E0214B98420ED003F5806301
:100FB000984222D0A3F518439842E9D140F61F0089
:100FC000FFF75CFF40F61F0005E040F60410FFF756
:100FD00055FF40F60410BDE80840FFF751BF40F64A
:100FE0001100FFF74BFF40F61100F4E740F6120046
:100FF000FFF744FF40F61200EDE740F60510FFF75B
:101000003DFF40F60510E6E740F61300FFF736FF18
:1010100040F61300DFE740F61E00FFF72FFF40F613
:101020001E00D8E70078004000500040001001404A
:1010300038B51E4B984204460D462ED021D8A3F554
:101040003053984229D01AD8A3F50063984224D08F
:1010500003F580639C4220D00020E26812044FEA2E
:1010600055031CD503EB4003B3FBF5F1C1F3420379
:1010700021F00F010904090C0B43A36038BD0C4B90
:10108000E8E70C4B20F480629A4202D0A3F51443A7
:10109000E0E70320FFF7F6FEDFE70220FAE7C118DA
:1010A000B1FBF5F189B2A160E8E700BF007800402C
:1010B0000050004000100140C36823F4C063C360C7
:1010C000C3680B43C3607047C36823F48053C36095
:1010D000C3680B43C3607047036923F44053036143
:1010E00003690B4303617047C36843F40053C36053
:1010F0007047C36823F008030B43C3607047C3689D
:1011000023F004030B43C3607047C1F3080141603F
:1011100070478B0901F01F011858C84000F001000A
:1011200070470000524BD3F8002842F0010282B011
:10113000C3F80028D3F800289007FBD5D3F8082877
:1011400042F08002C3F8082800230193019B4F2B33
:101150003DD9474BD3F8082842F09002C3F808283D
:1011600000220192019A4F2A34D9D3F8082822F09C
:101170000302C3F80828D3F8002822F0847222F46E
:101180008032C3F80028D3F8002822F48022C3F864
:1011900000280022C3F80828D3F808183549C3F8F6
:1011A0000418C3F80C28D3F8002842F48032C3F89E
:1011B00000282F4B4FF6FF72D3F80018890301D493
:1011C000013AF9D1D3F80028920306D4FEE7019B37
:1011D0000133BAE7019A0132C3E7D3F8402842F05D
:1011E0008052C3F84028244A116841F440411160FC
:1011F000D3F80818C3F80818D3F8081841F40041C8
:10120000C3F80818D3F8081841F4A051C3F8081817
:101210001A49C3F80418D3F8001841F08071C3F8D4
:1012200000181349D1F800389B01FBD5136843F42B
:1012300080331360104B5A68D003FCD51A6842F40F
:1012400000321A605A689103FCD5094BD3F808287C
:1012500022F00302C3F80828D3F8082842F002025B
:10126000C3F80828D3F808281207FBD502B0704746
:101270000030024010300024007000401964400922
:101280007047FEE7FEE7FEE7FEE7704770477047EE
:1012900000F05AB810B500F013F800F05FF80648F7
:1012A000064C00F09FFF00F019FA00F031F8C1B2CF
:1012B000204600F011FFF8E7B6430008D9430008C4
:1012C0000D4B4FF47A721B68B3FBF2F3013BB3F1A1
:1012D000807F0ED24FF0E022F0215361074B0720B0
:1012E00083F8231000219161106183F823100120FD
:1012F00070470020704700BF0000002000ED00E0B4
:10130000024B18601A68002AFCD17047F8010020CF
:1013100010B50A4B1B780BB9FFF7D2FF084B4FF003
:10132000E0241968A26918688842FAD1054B9B1A13
:1013300043F69822B3FBF2F3184410BDF0010020ED
:10134000F4010020E0707200034B1A6812B11A68B1
:10135000013A1A60704700BFF801002010B541F251
:1013600004102B4CFFF76FFD4FF44060FFF76BFD4F
:101370004FF44060FFF767FD20464FF400720721ED
:10138000FFF760FC20464FF480620721FFF75AFC0C
:1013900020464FF4007301220221FFF715FC20467E
:1013A0004FF4806301220221FFF70EFC20464FF428
:1013B000007302220021FFF729FC4FF48063022210
:1013C00000212046A4F57044FFF720FC2046FFF7DB
:1013D000CDFD20464FF4E131FFF72AFE20460021E3
:1013E000FFF76AFE20460021FFF76EFE002120462F
:1013F000FFF772FE2046FFF777FE20460821FFF731
:1014000078FE20460421BDE81040FFF778BE00BFFB
:1014100000000240F8B50A4F0E4614460025A542CA
:1014200001DB2046F8BD715D3846FFF76EFE0721EF
:101430003846FFF76EFE0028F9D00135EFE700BF10
:101440000010014038B5214D214C2846FFF72AFCF9
:1014500040F60140FFF7F7FC204640220421FFF749
:10146000F1FB204680220421FFF7ECFB20464023BD
:1014700001220221FFF7A8FB20464023022201217E
:10148000FFF7C4FB2046802301220221FFF79CFBCB
:101490008023022201212046FFF7B8FB41F215000C
:1014A000FFF7D1FC284600226421FFF723FC00222D
:1014B000D02311462846FFF77FFC2846FFF795FC0E
:1014C00028460021BDE83840FFF781BC00540040A9
:1014D000000402402DE9F84306460D463E484FF40D
:1014E000806190469946FFF772FC00242746013C34
:1014F000022C03D8DFE804F0182B4E003FB9364C1D
:1015000040F201612046FFF784FC0028F8D1324800
:10151000314CFFF76FFC4FF4A0612046FFF779FCD8
:101520000028F8D00124E2E77FB96FF001022A48D1
:10153000294C4146FFF751FC40F201512046FFF78C
:1015400068FC0028F8D00224D1E70122EFE7224806
:10155000214C40F20151FFF764FC97B140F2065173
:101560002046FFF756FC0028F8D0012D06F10107B0
:101570001FD02046FFF74AFC013D3070EDB23E46D9
:10158000ECE740F207512046FFF743FC0028F8D073
:101590000324ACE71048104C4946FFF735FC40F2F5
:1015A00002512046FFF735FC0028F8D0002401271F
:1015B0009DE700210848FFF70AFC0748FFF726FCD3
:1015C00030700548FFF71BFC044AD2F800349B0535
:1015D000FBD40120BDE8F8830054004000500040D7
:1015E0002DE9F84307460D463A484FF4806190468E
:1015F0009946FFF7ECFB00242646052CFDD801A3F5
:1016000053F824F01D160008491600086916000852
:1016100089160008FB150008BD1600083EB92D4CC0
:1016200040F201612046FFF7F4FB0028F8D1294879
:10163000284CFFF7DFFB4FF4A0612046FFF7E9FBE2
:101640000028F8D00124D8E72248224C6FF001028C
:101650004146FFF7C2FB40F201512046FFF7D9FB9C
:101660000028F8D00224C8E71A4840F20151FFF7D9
:10167000D8FB3EB9174C40F207512046FFF7C9FB93
:101680000028F8D00324B8E786B912484946FFF786
:10169000BBFB104E40F202513046FFF7BAFB002868
:1016A000F8D0002D08BF05240126A6E717F8011B76
:1016B0000848013DFFF7A8FBEDB2EAE70548FFF750
:1016C0009EFB054AD2F800349B05FBD50020BDE8FF
:1016D000F88300BF00540040005000401FB5FFF7E2
:1016E000B1FE00247523D022012101A88DF8044009
:1016F000FFF7F0FE9DF80430682B36D11D4800F04E
:1017000071FD1D4B18689B880290D0220121ADF815
:101710000C3002A86B23FFF763FF6420FFF7F0FD96
:101720006B23D02201210DF10900FFF759FF1A2385
:10173000D02201210DF10A00FFF752FF1B23D02216
:1017400001210DF10B00FFF74BFF1C23D0220121DB
:1017500003A8FFF745FF1923D02201210DF10D0049
:10176000FFF73EFF012004B010BD044800F03AFD31
:101770002046F8E7EF430008B043000802440008A1
:10178000002103E00B4B5B58435004310A480B4BDC
:1017900042189A42F6D30A4A02E000231360043248
:1017A000084B9A42F9D3FFF7BDFC00F00FF8FFF7A2
:1017B00071FD7047DC47000800000020D4010020C4
:1017C000D401002010020020FEE7000070B50D4D8E
:1017D0000D4C641BA4100026A64209D10B4D0C4CE5
:1017E00002F0CEFD641BA4100026A64205D170BDF8
:1017F00055F8043B98470136EEE755F8043B984707
:101800000136F2E7D4470008D4470008D44700085F
:10181000D847000802440346934200D1704703F8BA
:10182000011BF9E72DE9F04788B0002B1F4614464D
:10183000B8BF03F10043129A109DDDF84CA0B6BF6B
:101840001F4600232D231370149B23F02008B8F1AA
:10185000460F05D0B8F1450F00D10135022300E055
:10186000032307AA049206AACDE902A2CDE9003516
:1018700022463B4600F004FEB8F1470F064602D16F
:10188000119BDB0722D5B8F1460F06EB050910D1F5
:101890003378302B0AD10022002320463946FFF747
:1018A00003F918B9C5F10105CAF80050DAF800309B
:1018B00099440022002320463946FFF7F5F808B185
:1018C000CDF81C903022079B4B4507D3079B159AF8
:1018D0009B1B3046136008B0BDE8F087591C079188
:1018E0001A70F0E7F7B503460029B8BF494203F87C
:1018F000022BB4BF2D222B22092942702ADD0DF1C3
:10190000070217460A26944691FBF6F506FB1514C6
:1019100030340CF8014C0C46632C02F1FF3229469E
:10192000F1DC3031ACF1020402F8011C411C22460A
:10193000BA420AD30DF10902A2EB0C02BC4288BFE5
:1019400000221344181A03B0F0BD12F8015B01F82D
:10195000015FEDE7302330318370C170031DF1E783
:101960002DE9F04F91B00C46DDF8688016461F4611
:10197000054601F019FD036809931846FEF718FCA7
:1019800000230E93D8F800300A90073323F00703A2
:1019900003F1080294F81890D4F800B0C8F80020B9
:1019A000D3E900A852464346C4E9122328F0004375
:1019B0000B930B999C4B4FF0FF325046FFF7A6F864
:1019C00070BB994B0B994FF0FF325046FFF780F8F0
:1019D00030BB0022002350464146FFF76FF810B19C
:1019E0002D2384F84330914A914BB9F1470F94BFAE
:1019F00090469846032323612BF0040323604FF0A5
:101A0000000A009733460FAA2146284600F0D4F971
:101A1000013040F08F804FF0FF3011B0BDE8F08F03
:101A20005246434650464146FFF770F840B1B8F180
:101A3000000FBCBF2D2384F843307E4A7E4BD4E791
:101A400063685A1C09F0DF0142D10623636000225B
:101A500006920EAACDE904920DAA4BF4806303927C
:101A60000DF13302CDE901322360636800935246E1
:101A7000434628460B91FFF7D5FE0B994729804630
:101A80000D9908D1C81C02DB6368994240DDA9F1B9
:101A900002095FFA89F9B9F1650F1FD801394A4681
:101AA00004F150000D91FFF71DFF0E9A1318012A43
:101AB0008246236102DC2268D20701D5013323610B
:101AC0009DF83330002B9CD02D2384F8433098E7C9
:101AD0004729BCD1002BBAD10123B7E7B9F1660F72
:101AE00018D1002963680BDD216113B92268D00782
:101AF00002D501330B442361A1654FF0000ADFE7F3
:101B000013B92268D20701D50233F4E70123F2E7C3
:101B10004FF067090E9B994205DB23682161D807C6
:101B2000EAD54B1CE7E70029D4BFC1F1020201222C
:101B30001344E0E723685A0507D423694246314637
:101B40002846B84701302BD165E7B9F1650F40F25F
:101B5000DC80D4E9120100220023FEF7A5FF002853
:101B600033D0364A012331462846B84701303FF486
:101B700052AFDDE90D239A4202DB2368D8070FD567
:101B8000DDE9092331462846B84701303FF443AF29
:101B90004FF0000804F11A090E9B013B434509DC94
:101BA00023689B0700F10381E0680F9B9842B8BF50
:101BB000184632E701234A4631462846B8470130E5
:101BC0003FF429AF08F10108E6E70D9B002B37DC55
:101BD0001A4A012331462846B84701303FF41BAF6B
:101BE000DDE90D32134302D12368D907D8D5DDE9E9
:101BF000092331462846B84701303FF40CAF4FF077
:101C0000000904F11A0A0D9B5B424B4501DC0E9B57
:101C100094E70123524631462846B84701303FF445
:101C2000FAAE09F10109EEE7FFFFEF7F204400085B
:101C300024440008284400082C44000830440008CC
:101C40000E9AA36D9A42A8BF1A46002A914637DC25
:101C50004FF0000B29EAE97904F11A02D4F858A0F0
:101C6000AAEB09035B4533DCDDE90D239A423BDB3C
:101C70002368DA0738D4DDE90D32A2EB0309A2EBC1
:101C80000A029145A8BF9146B9F1000F34DC4FF02C
:101C9000000829EAE97904F11A0ADDE90D239B1A03
:101CA000A3EB090343457FF77BAF0123524631463F
:101CB0002846B84701303FF4AEAE08F10108ECE722
:101CC0001346314642462846B8470130C0D1A2E605
:101CD0000123314628460B92B84701303FF49BAEB2
:101CE0000B9A0BF1010BB9E7DDE9092331462846D0
:101CF000B8470130BFD18EE64B4608EB0A023146A9
:101D00002846B8470130C2D185E60E9A012A01DC87
:101D1000DB0739D50123424631462846B847013012
:101D20003FF479AEDDE9092331462846B847013052
:101D30003FF471AED4E9120100220023DDF838909F
:101D4000FEF7B2FED8B909F1FF3308F101023146BE
:101D50002846B84701300ED15DE601234A46314698
:101D60002846B84701303FF456AE08F101080E9BF3
:101D7000013B4345F1DC534604F15002DFE64FF0EE
:101D8000000804F11A09F2E701234246DFE70123C4
:101D90004A4631462846B84701303FF43CAE08F188
:101DA0000108E3680F995B1A4345F0DCFCE64FF04D
:101DB000000804F11909F4E72DE9F04716469946A1
:101DC0008A680B69DDF820809342B8BF1346336000
:101DD00091F8432007460C460AB10133336023686B
:101DE000990642BF336802333360256815F0060553
:101DF00006D104F1190AE36832689B1AAB4226DC6B
:101E000094F84320131E226818BF012392062BD496
:101E100004F1430249463846C04701301ED02368CA
:101E2000226903F00603042B02BFE5683368ED1A4C
:101E3000A3680CBF25EAE57500259342C4BF9B1A31
:101E4000ED1800261A34B5421AD1002008E001230B
:101E5000524649463846C047013003D14FF0FF3063
:101E6000BDE8F0870135C6E7E1185A1C302081F83B
:101E70004300224494F8451082F843100233C7E728
:101E80000123224649463846C0470130E6D0013694
:101E9000D9E700002DE9FF470F7E0C9D782F914672
:101EA00080460C469A4601F1430207D8622F0AD8B1
:101EB000002F00F0D480582F00F0C08004F14205BC
:101EC00084F842703AE0A7F16303152BF6D801A11C
:101ED00051F823F02D1F0008411F0008BD1E000807
:101EE000BD1E0008BD1E0008BD1E0008411F0008E1
:101EF000BD1E0008BD1E0008BD1E0008BD1E000856
:101F0000452000086D1F0008FF1F0008BD1E0008C7
:101F1000BD1E000867200008BD1E00086D1F0008D8
:101F2000BD1E0008BD1E0008072000082B681A1DF2
:101F30001B682A6004F1420584F8423001239FE0C7
:101F400020682B68070603F10401296001D51E688B
:101F500003E04606FBD5B3F90060002E03DA2D231B
:101F6000764284F843305A480A2312E02B682068EE
:101F7000191D2960050601D51E6802E04106FBD542
:101F80001E8853486F2F0CBF08230A23002184F8B2
:101F900043106568A560002DA2BF216821F00401EF
:101FA00021600EB9002D4BD01546B6FBF3F103FBB3
:101FB0001167C75D05F8017D3746BB420E46F4D96F
:101FC000082B0BD12368DE0708D523696168994285
:101FD000DEBF302305F8013C05F1FF35521B2261BD
:101FE000CDF800A04B4603AA21464046FFF7E4FE89
:101FF00001304AD14FF0FF3004B0BDE8F0872368CC
:1020000043F0200323603348782784F84570236821
:1020100029681F0651F8046B02D45F0648BFB6B2A8
:10202000DF0748BF43F02003296048BF23601EB983
:10203000236823F0200323601023A7E72448E4E764
:102040001546BDE72B6826686169181D28603506AE
:102050001B6801D5196002E07006FBD519800023CA
:1020600023611546BCE72B681A1D2A601D6862684B
:1020700000212846FEF7A4F808B1401B60606368A1
:102080002361002384F84330AAE723692A4649469E
:102090004046D0470130ADD023689B0713D4E06899
:1020A000039B9842B8BF1846A6E70123324649462B
:1020B0004046D04701309DD00135E36803995B1A53
:1020C000AB42F2DCEBE7002504F11906F5E700BFAF
:1020D00032440008434400080FB40A4B13B51C688F
:1020E00024B1A36913B9204601F0C0F805AB049AE6
:1020F000A1680193204601F07DFE02B0BDE81040CA
:1021000004B070470400002070B50E46054618B1B3
:1021100083690BB901F0AAF8AB69AC6813B928461A
:1021200001F0A4F82C4B9C4220D16C68636EDB0755
:1021300005D4A389980502D4A06D01F03AF9A389CA
:1021400019071DD52369DBB1013EA36816F8011FED
:10215000013BA36039BB002B38DA22460A2128460E
:1021600000F048F8013011D00A2511E01B4B9C42C9
:1021700001D1AC68DAE71A4B9C4208BFEC68D5E79E
:102180002146284600F088F80028DDD04FF0FF35C2
:10219000636EDA0705D4A3899B0502D4A06D01F014
:1021A00009F9284670BD002B04DAA2699A4206DCC0
:1021B0000A2904D023685A1C22601970C5E72246F8
:1021C000284600F017F80130BFD1DFE723680A2561
:1021D0005A1C22601D70DBE7F44400081445000817
:1021E000D4440008024B01461868FFF78DBF00BFBA
:1021F00004000020F8B50E461446054618B1836960
:102200000BB901F033F8214B9C422BD16C68A369C8
:10221000A360A3891A072FD523696BB323692068AC
:10222000C01A6369F6B28342374604DC2146284669
:1022300000F088FF30BBA368013BA36023685A1CF1
:1022400022601E7063690130834204D0A389DB07DA
:1022500006D50A2E04D12146284600F073FF88B91E
:102260003846F8BD0A4B9C4201D1AC68CFE7094B18
:102270009C4208BFEC68CAE72146284600F00CF8EB
:102280000028CBD04FF0FF37EAE700BFF444000846
:1022900014450008D4440008324B70B51D6806464A
:1022A0000C4625B1AB6913B9284600F0DFFF2E4B71
:1022B0009C420FD16C68A389B4F90C2019072CD467
:1022C000DD0611D40923336042F04003A3814FF0AF
:1022D000FF303EE0254B9C4201D1AC68EBE7244B3C
:1022E0009C4208BFEC68E6E7580712D5616B41B124
:1022F00004F14403994202D0304601F075FC0023FA
:102300006363A38923F02403A3810023636023690B
:102310002360A38943F00803A38123694BB9A389F0
:1023200003F42073B3F5007F03D02146304601F05B
:1023300069F8A089B4F90C2010F001030AD0002339
:10234000A36063695B42A361236943B910F0800015
:10235000BAD170BD810758BF6369A360F4E700205C
:10236000F7E700BF04000020F4440008144500080B
:10237000D44400082DE9F74F03690C69A3420746CE
:102380007BDB013C01F1140800F1140505EB84032B
:10239000019358F8243055F8242001339A424FEA2B
:1023A000840B08EB8409B2FBF3F62ED34FF0000E3A
:1023B0004046AC46F24650F8042B93B206FB03E3CA
:1023C0004FEA124E1A0C9BB206FB0E22AAEB030335
:1023D000DCF800A04FEA124E92B213FA8AF3C2EB75
:1023E0001A4202EB23429BB243EA024381454CF876
:1023F000043B4FEA224ADED255F80B302BB9019B41
:10240000043B9D421A462CD33C61384601F0DEFA6B
:10241000002822DB01362946002058F8042BD1F889
:1024200000C093B2C31A120C13FA8CF3C2EB1C4215
:1024300002EB23429BB243EA0243C14541F8043B0D
:102440004FEA2240E9D255F8242005EB840322B953
:10245000043B9D421A460AD33C61304603B0BDE8B6
:10246000F08F1268043B002ACED1013CC9E7126804
:10247000043B002AF0D1013CEBE70020EEE700002E
:102480002DE9F04F446A99B016461F46CDE904671E
:10249000DDF89480054674B9102000F0F3FF024681
:1024A000686220B9AA4BEA21AA4801F043FEC0E9BC
:1024B00001440460C4606B6A196851B15A684A608B
:1024C000012393408B60284601F044F86B6A002298
:1024D0001A603B1EB9BF23F0004305930023C8F8E0
:1024E0000030DDF814909C4BBCBF0122C8F80020DE
:1024F00033EA090319D1249A42F20F731360C9F326
:102500001303334300F08785269B53B9934B23E095
:10251000934B03930833269A1360039819B0BDE8D0
:10252000F08F8E4B03930333F5E7DDE90434CDE9F7
:102530000C34DDE90C0100220023FEF7B5FA8046D9
:1025400060B1249A01231360269B002B00F0608564
:10255000844B269A1360013B0393DEE716AB01938D
:1025600017AB00932846DDE90C2301F0D3FAC9F339
:102570000A548246002C7DD00D9BCDF84C80C3F3CD
:102580001303DDE90C0143F07F5343F44013A4F23D
:10259000FF3419460022744BFDF766FE66A3D3E9AB
:1025A0000023FEF719F866A3D3E90023FDF75EFECA
:1025B000064620460F46FDF7A5FF63A3D3E9002397
:1025C000FEF70AF802460B4630463946FDF74EFE46
:1025D00006460F46FEF7B0FA002283460023304637
:1025E0003946FEF76BFA48B15846FDF78BFF324685
:1025F0003B46FEF759FA08B90BF1FF3BBBF1160F4A
:1026000056D85A4B03EBCB03D3E90023DDE90C0189
:10261000FEF754FA00284DD00BF1FF3B00230F9337
:10262000169B1B1B5A1E44BFC3F1010900230992CC
:1026300054BF4FF000090993BBF1000F3CDB099B2D
:10264000CDF838B05B44099300230A93229B092BF1
:1026500066D8052BC4BF043B2293229BA3F102033F
:10266000CCBF00240124032B00F28480DFE803F0B8
:102670002C393756DDE916431C4404F23243202B33
:10268000C1BFC3F1400309FA03F904F2124326FA69
:1026900003F3D6BFC3F1200349EA030006FA03F0AF
:1026A000FDF720FF0122A1F1F873013C139270E7BE
:1026B0000123B4E70F90B3E7CBF100030A930023A3
:1026C000A9EB0B090E93C1E700230B93239B002B6F
:1026D00053DC0123069308931A4623920BE001234F
:1026E000F3E700230B93239B5B4406930133012BF9
:1026F0000893B8BF0123686A0021042202F114067E
:102700009E423ED94160284600F0E4FE0390002836
:102710003AD1174B02464FF4D571C5E60123E1E7E4
:102720000124002322930B944FF0FF330693089368
:1027300000221223D1E700BF61436F63A787D23F16
:10274000B3C8608B288AC63FFB799F501344D33FA0
:1027500061440008784400080000F07F5D440008F0
:1027600054440008314400080000F83FB045000818
:10277000C044000801230B93D6E7239B06930893DC
:10278000B9E701315200B9E76B6A039A1A60089BF6
:102790000E2B00F2A880002C00F0A580BBF1000FEA
:1027A00034DD9A4B0BF00F0203EBC203D3E9003484
:1027B0001BF4807FCDE910344FEA2B1416D0944BD4
:1027C000DDE90C01D3E90823FEF730F8CDE9040177
:1027D00004F00F0403278E4E54B9DDE91023DDE920
:1027E0000401FEF723F8CDE9040129E00227F2E70E
:1027F000E10708D5DDE91001D6E90023FDF7ECFE7D
:10280000CDE91001013764100836E5E700F0A58036
:10281000CBF100047D4B7E4E04F00F0203EBC203AC
:10282000D3E90023DDE90C01FDF7D6FECDE9040173
:10283000241100230227002C40F08480002BD2D1E9
:10284000DDE90434CDE910340F9B002B00F08780C4
:10285000DDE910016F4B0022FEF730F900287ED031
:10286000089B002B7BD0069B002B38DDDDE9100197
:10287000694B0022FDF7B0FECDE90401069C0BF187
:10288000FF3801373846FDF73DFEDDE90423FDF74B
:10289000A3FE624B0022FDF7E9FCA1F15076CDE9E1
:1028A00010011196002C5DD1DDE904015C4B002282
:1028B000FDF7DAFC02460B46CDE90423109A3346B5
:1028C000FEF71AF9002840F09582DDE90401109A1C
:1028D00006F10043FEF7F2F8002840F08982DDE9B6
:1028E0000C34CDE90434179B002BC0F25181BBF1AD
:1028F0000E0F00F34D81454B03EBCB03D3E90034BE
:10290000CDE90634239B002B80F2DA80089B002B54
:1029100000F3D68040F06B82414B0022DDE90601D6
:10292000FDF75AFEDDE90423FEF7DCF8089C264695
:10293000002840F04182039F312307F8013B0BF14F
:10294000010B3DE2E20705D5D6E90023FDF744FE81
:1029500001370123641008366DE7022770E7089CF1
:10296000D8468FE70399294B214412910B9903EB29
:10297000C403DDE9106753E90223002954D0294933
:102980000020FDF753FF3B463246FDF76DFCCDE9D5
:102990001001039FDDE90401FEF7CEF80446FDF7C0
:1029A000B1FD02460B46DDE90401FDF75DFC303464
:1029B00002460B46CDE9042307F8014BDDE910235D
:1029C000FEF77CF8002873D1DDE9042311490020CB
:1029D000FDF74AFCDDE91023FEF770F8002840F00F
:1029E000B680129B9F423FF47AAFDDE910010A4B9B
:1029F0000022FDF7F1FD084BCDE910010022DDE9D1
:102A00000401FDF7E9FDCDE90401C3E7B045000885
:102A1000884500080000F03F0000244000001C40F2
:102A2000000014400000E03F30463946FDF7D4FD79
:102A3000CDE91001129B039C1493DDE90401FEF71C
:102A40007BF81590FDF75EFD02460B46DDE90401BB
:102A5000FDF70AFC159B303304F8013B129B9C42A6
:102A600006460F464FF0000224D1B04BDDE91001BD
:102A7000FDF7FCFB02460B4630463946FEF73CF8B4
:102A8000002863D1DDE91023A8490020FDF7ECFB05
:102A900002460B4630463946FEF710F800283FF450
:102AA0001EAF149F7B1E149317F8013C302BF8D0F7
:102AB000C3463BE09E4BFDF78FFDCDE90401BCE72B
:102AC000DDE90489039FDDE9062340464946FDF719
:102AD000ADFEFEF731F80446FDF714FDDDE90623EF
:102AE000FDF77AFD04F1300602460B4640464946A2
:102AF000FDF7BAFB07F8016B039EDDF820C0BE1B93
:102B0000B44502460B4636D1FDF7B0FBDDE906239E
:102B100080468946FDF7F0FF58BBDDE906234046B5
:102B20004946FDF7C1FF08B1E30722D451462846C4
:102B300000F010FD0023249A3B700BF10103136099
:102B4000269B002B3FF4E9AC1F60E6E427463B469A
:102B50001F4613F8012D392A07D1039A9A42F7D15B
:102B60000399302208F101080A701A7801321A70AC
:102B70009EE7D846EBE76E4B0022FDF72DFD0022C5
:102B8000002380468946FDF78FFF00289BD0CDE7C4
:102B90000B9A002A00F0C480229A012A00F3A88030
:102BA000139A002A00F0A08003F233430A9C4F4698
:102BB000099A01211A4428469944099200F080FD9F
:102BC00006465FB1099B002B08DDBB42099AA8BFEE
:102BD0003B46A9EB0309FF1AD31A09930A9BF3B1E9
:102BE0000B9B002B00F0A080002C10DD314622460C
:102BF000284600F025FE524601460646284600F0CB
:102C000075FD51468046284600F0A4FCC2460A9B4A
:102C10001A1B04D05146284600F012FE82460121BC
:102C2000284600F04DFD0E9B002B044640F38280A9
:102C30001A460146284600F003FE229B012B04465B
:102C40007BDD4FF00008236904EB8303186900F073
:102C5000E9FCC0F12000099B184410F01F0000F0AF
:102C60009280C0F12003042B40F38580099BC0F1C2
:102C70001C000344814407440993B9F1000F05DDAA
:102C800051464A46284600F035FE8246099B002BF5
:102C900005DD21461A46284600F02CFE04460F9B0F
:102CA000002B72D02146504600F090FE00286CDACE
:102CB000002351460A22284600F06EFC0B9B0BF1C4
:102CC000FF3B8246002B00F0AD81002331460A22F3
:102CD000284600F061FC069B002B064600F393801B
:102CE000229B022B59DC8EE0169BC3F136035DE775
:102CF000089B5C1E0A9BA342BFBF0A9B0E9A0A94C4
:102D0000E31AB4BFD2181C1B089BBCBF0E92002450
:102D1000002BB5BFA9EB0307089B00234F4647E7ED
:102D20000A9C0B9E4F464CE70A9A73E70000E03F6F
:102D300000002440229B012B18DC049BB3B9059BA7
:102D4000C3F3130393B9059B23F000431B0D1B052D
:102D50007BB1099B013309F1010909934FF0010887
:102D60000E9B002B7FF46FAF012074E74FF000083B
:102D7000F6E79846F4E780D0099A1C331A44994440
:102D80001F44099279E70346F6E7089B002B34DCE1
:102D9000229B022B31DD089B0693069B63B92146DB
:102DA0000522284600F0F8FB01460446504600F094
:102DB0000DFE00283FF7BFAD239B039F6FEA030B77
:102DC0004FF000082146284600F0C4FB002E3FF4D7
:102DD000ADAEB8F1000F05D0B04503D0414628464E
:102DE00000F0B8FB3146284600F0B4FB9EE6002414
:102DF0002646E1E7C34626469DE50B9B002B00F0E7
:102E0000C880089B0693002F05DD31463A462846C8
:102E100000F070FD0646B8F1000F5BD071682846DF
:102E200000F058FB074628B9824B024640F2EA21DF
:102E3000FFF73ABB32690232920006F10C010C3006
:102E400000F03AFB01223946284600F053FD039B6F
:102E5000039A01330893069B13440B93049B03F0DE
:102E60000103B0460A930646089B2146013B5046A3
:102E70000493FFF77FFA4146069000F1300950466F
:102E800000F0A4FD324609902146284600F0BAFD24
:102E9000C268074602BB0146504600F097FD024655
:102EA000394628460C9200F055FB229B0C9A089F4D
:102EB00043EA02010A9B194310D1B9F1390F29D015
:102EC000099B002B02DD069B03F13109049B83F86B
:102ED000009077E73046BAE70122E1E7099B002B33
:102EE00004DB22990B430A990B4320D1002AEDDD24
:102EF00051460122284600F0FDFC2146824600F0A2
:102F000065FD002803DCE1D119F0010FDED0B9F135
:102F1000390FD8D1049A392313703B461F46013B21
:102F200017F8012C392A6CD001321A704AE7002AAE
:102F300007DDB9F1390FEDD0049A09F101031370DF
:102F400040E7089B0B9A03F8019C934243D05146FB
:102F500000230A22284600F01FFBB04582464FF0AE
:102F600000034FF00A024146284607D100F014FB47
:102F700080460646089B0133089375E700F00CFB7A
:102F80003146804600230A22284600F005FB06460B
:102F9000F0E7089B0693039F21465046FFF7EAF9A6
:102FA00000F13009039B07F8019BFA1A069B934234
:102FB00007DD514600230A22284600F0EDFA82463A
:102FC000EAE7069B002BC8BF1F46039BD8BF01271B
:102FD0001F444FF0000851460122284600F08AFCA9
:102FE0002146824600F0F2FC002896DC02D119F05E
:102FF000010F92D13B461F4613F8012D302AFAD01B
:10300000E0E6039A9A4289D10BF1010B312396E74E
:10301000094BFFF7A1BA269B002B7FF479AA074B37
:10302000FFF79ABA069B002BB5DC229B022B3FF7D9
:10303000B4AEB0E7C044000830440008544400086F
:103040008A89F8B5054610070C4657D44B68002B03
:1030500004DC0B6C002B01DC0020F8BDE66A002EBE
:10306000FAD0002312F480522F68216A2B6032D0EC
:10307000606DA3895A0705D56368C01A636B0BB1ED
:10308000236CC01A00230246E66A216A2846B0472C
:10309000431CA38906D129681D292BD8284A0A4137
:1030A000D60727D400226260D9042269226004D5A1
:1030B000421C01D12B6803B96065616B2F60002948
:1030C000CAD004F14403994202D0284600F08CFD96
:1030D00000206063C1E701232846B047411CC8D1E6
:1030E0002B68002BC5D01D2B01D0162B01D12F60D2
:1030F000B2E7A38943F04003A381AEE70F69002F35
:10310000AAD093070E6808BF4B690F6018BF002351
:10311000F61B8B60002E9FDD216AD4F828C0334651
:103120003A462846E047002806DCA38943F04003DE
:10313000A3814FF0FF3090E70744361AEAE700BF5B
:10314000FEFFBFDF38B50B6905460C4613B90025F5
:10315000284638BD18B183690BB900F087F8144BC5
:103160009C421BD16C68B4F90C30002BEFD0626E1E
:10317000D00704D4990502D4A06D00F01AF92846AE
:103180002146FFF75DFF636EDA070546E0D4A389A9
:103190009B05DDD4A06D00F00DF9D9E7054B9C42ED
:1031A00001D1AC68DFE7044B9C4208BFEC68DAE76A
:1031B000F444000814450008D4440008002310B566
:1031C0000446C0E90033C0E904338360818143666B
:1031D000C2818361194608225C30FEF71BFB054B58
:1031E0006362054BA362054BE362054B24622363D4
:1031F00010BD00BF7140000893400008CB4000089C
:10320000EF400008014900F0AFB800BF45310008A9
:1032100070B568234D1E5D430E4605F1740100F044
:103220004DFD044640B10021C0E900160C30A060FD
:1032300005F16802FEF7EEFA204670BD014800F085
:10324000B8B800BFFD010020014800F0B3B800BFCE
:10325000FD010020014800F0ACB800BFFE010020D5
:10326000014800F0A7B800BFFE01002010B50446D9
:10327000FFF7F0FFA3691BB1BDE81040FFF7F0BFF7
:10328000C4E912332365134B134A1B68A262A3429D
:1032900004BF0123A361204600F020F860602046AF
:1032A00000F01CF8A060204600F018F80022E06052
:1032B00004216068FFF782FFA06801220921FFF75F
:1032C0007DFFE06802221221FFF778FF0123A3614E
:1032D000D2E700BF1C44000805320008F8B50746D5
:1032E000FFF7ACFF1E4B1E68B36913B93046FFF7FA
:1032F000BDFF4836D6E90134013B03D533680BB333
:103300003668F7E7B4F90C50D5B9164BE36004F111
:103310005800656600F04CF8FFF796FFC4E90155C8
:10332000C4E904552560A5610822294604F15C0022
:10333000FEF770FAC4E90D55C4E912552046F8BDF0
:103340006834D9E704213846FFF762FF044630604D
:103350000028D5D1FFF778FF0C233B60EEE700BFD4
:103360001C4400080100FFFF2DE9F843064688468B
:1033700000F148040027D4E90195B9F1010905D508
:103380002468002CF7D13846BDE8F883AB89012BBF
:1033900007D9B5F90E30013303D029463046C0476E
:1033A00007436835E9E700000048704758010020EE
:1033B00070477047704770B50C46B1F90E10002980
:1033C00096B015461E460DDAA38913F0800F4FF014
:1033D00000010CBF4FF480634023002031602B605C
:1033E00016B070BD6A4600F0E5FE0028ECDB0199DE
:1033F00001F47041A1F50053594259414FF48063E3
:10340000EBE700008B8973B59D0706460C4607D590
:1034100004F14703236023610123636102B070BD9F
:1034200001AB6A46FFF7C7FF00990546304600F03A
:1034300045FC48B9B4F90C309A05EFD423F00303E6
:1034400043F00203A381E3E70D4BB362A38920603D
:1034500043F08003A381009B6361019B20615BB10A
:10346000B4F90E10304600F0B7FE28B1A38923F05E
:10347000030343F00103A381A3891D43A581CDE785
:1034800005320008024B0146186800F017BC00BF67
:103490000400002082B001B901A942B14BB11378F8
:1034A0000B601278101E18BF012002B07047104642
:1034B000FBE76FF00100F8E70A44914200F1FF33A7
:1034C00000D1704710B511F8014B03F8014F91423C
:1034D000F9D110BD70B5466A04460D4676B9102084
:1034E000FFF7D0FF0246606220B9184B18486621EA
:1034F00000F020FEC0E901660660C660666AF368F7
:1035000083B1636ADB6853F82500B8B9012101FA79
:1035100005F6721D9200204600F052FB60B1C0E932
:1035200001560EE021220421204600F049FB636A87
:10353000F060DB68002BE4D1002070BD026843F826
:1035400025200023C0E90333F7E700BF61440008EA
:103550003E45000870B5466A05460C4676B910200F
:10356000FFF790FF0246686220B9094B09488A219B
:1035700000F0E0FDC0E901660660C6603CB16B6A20
:103580006268DB6853F82210216043F8224070BD66
:10359000614400083E4500082DE9F0410D690746E9
:1035A0000C461E4601F1140C0020DCF8003099B2E4
:1035B00002FB01611E0C0B0C02FB063389B20130C9
:1035C00001EB034185424CF8041B4FEA1346ECDC47
:1035D0000EB3A368AB4219DC616838460131FFF7CE
:1035E00079FF804628B902460C4B0D48B52100F002
:1035F000A1FD2269023204F10C0192000C30FFF7A8
:103600005BFF21463846FFF7A5FF444604EB8503E0
:1036100001355E6125612046BDE8F081C0440008A7
:103620003E450008020C12040346CAB903041020E8
:1036300013F07F4F04BF1B02083013F0704F04BF1C
:103640001B01043013F0404F04BF9B000230002BDD
:1036500005DB13F0804F00F1010008BF2020704708
:103660000020E5E70368024613F007000BD0D907F6
:1036700021D4980749BF5B089B08012013605CBFF9
:1036800013600220704799B209B91B0C1020D9B2FF
:1036900009B908301B0A190704BF1B090430990730
:1036A00004BF9B080230D90703D45B0800F1010076
:1036B00003D013607047002070472020704700003F
:1036C00010B50C460121FFF705FF024628B9054B4E
:1036D00005484FF4A07100F02DFD01234461036102
:1036E00010BD00BFC04400083E4500082DE9F04F62
:1036F00091460A69D9F810309A42B8BF0B460C4679
:10370000BCBF4C4699462769D9F810A0A3686168E8
:1037100007EB0A06B34285B0B8BF0131FFF7DAFE06
:1037200030B90246444B454840F25D1100F002FDBD
:1037300000F1140505EB86082B460022434521D3F2
:1037400004F1140303EB870709F1140303EB8A0266
:1037500002923A1B153A22F00302043204F11501D9
:103760008F4238BF04220192029A03939A420CD8E6
:10377000002E03DD58F8043D002B5AD0066105B039
:10378000BDE8F08F43F8042BD8E7B3F800A0BAF1F6
:10379000000F23D004F1140EA9464FF0000C5EF880
:1037A000042BD9F800101FFA82FB89B20AFB0B1117
:1037B0006144D9F800C0120C4FEA1C4C0AFB02C24B
:1037C00002EB114289B241EA0241774549F8041BF4
:1037D0004FEA124CE3D8019A45F802C0039AB2F8B6
:1037E00002900433B9F1000F21D0296804F1140CC0
:1037F000AE464FF0000ABCF800B0BEF8022009FB4C
:103800000B22524489B241EA02414EF8041B5CF893
:10381000041B4FEA114ABEF8001009FB0A1101EB24
:10382000124167454FEA114AE5D8019AA95004357B
:103830009AE7013E9CE700BFC04400083E450008EF
:103840002DE9F843154612F0030206460F4607D04D
:10385000254C013A002354F82220FFF79DFE07462D
:10386000AD103DD0746A7CB91020FFF70BFE024604
:10387000706228B91D4B1E484FF4D77100F05AFCF6
:10388000C0E901440460C460D6F82480D8F8084038
:103890004CB940F271213046FFF712FF0023C8F8FF
:1038A0000800044603604FF00009EB070AD53946CB
:1038B00022463046FFF71AFF394680463046FFF76A
:1038C00049FE47466D100BD0206838B92246214684
:1038D0003046FFF70BFF2060C0F800900446E4E795
:1038E0003846BDE8F88300BF784600086144000808
:1038F0003E4500082DE9F0470C464968236903EB73
:103900006218A368074691464FEA621A08F1010659
:10391000B3420BDB3846FFF7DDFD054648B90246EA
:10392000284B294840F2D91100F004FC01315B001A
:10393000EEE7002300F1140100F110021846534590
:1039400033DB20692AEAEA7A04F1140319F01F092B
:1039500001EB8A0103EB800C2BD0C9F1200E8A46C3
:103960000022186800FA09F010434AF8040B53F8D3
:10397000042B9C4522FA0EF2F3D8ACEB0403153B62
:1039800023F00303043304F11500844538BF0423F6
:10399000CA500AB108F10206013E38462E6121469E
:1039A000FFF7D8FD2846BDE8F08742F8040F013341
:1039B000C5E7043953F8042B41F8042F9C45F9D886
:1039C000EAE700BFC04400083E4500080A69034614
:1039D0000069801A30B50DD11433143103EB820421
:1039E00001EB820154F8045D51F8042D954202D098
:1039F00004D3012030BDA342F4D3FBE74FF0FF30E6
:103A0000F8E700002DE9F84F0D4607461146284615
:103A10001446FFF7DBFF061E11D131463846FFF78B
:103A200059FD024628B9394B40F23221384800F09E
:103A300081FB0123C0E904361046BDE8F88FA4BF1E
:103A400023462C4638466168A6BF1D46002601263F
:103A5000FFF740FD024618B92C4B4FF41071E5E713
:103A60002769C6602E6904F1140005F1140902F1FA
:103A7000140E00EB870C09EB86061034F246002189
:103A800059F8043B54F804BF11FA8BF899B21B0C97
:103A9000A8EB0108C3EB1B4303EB28431FFA88F88C
:103AA00019144E4548EA03434AF8043BE8D8731B0F
:103AB000153B23F0030304331535AE4238BF04230E
:103AC000184473449E46064666450ED30CF1030126
:103AD000091A21F003010338844538BF00210B4443
:103AE00053F8041D79B11761A6E756F8048B11FA53
:103AF00088F4251405EB1845A4B244EA05444EF8B1
:103B0000044B2914E0E7013FEAE700BFC044000886
:103B10003E450008F7B50121089E17461C46FFF7F1
:103B2000D9FC054630B90246234B244840F20A31FD
:103B300000F000FBC4F31303C4F30A5424BB002FAA
:103B4000019326D068460097FFF78CFDDDE900124F
:103B5000E8B1C0F1200302FA03F30B43C2406B61EA
:103B60000192019BAB61002B14BF0221012129614D
:103B7000BCB1A4F2334404443460C0F13500099B65
:103B80001860284603B0F0BD43F48013D7E769619D
:103B9000E7E701A8FFF766FD019B6B61203001217B
:103BA000E5E705EB8103A0F2324030601869FFF7CA
:103BB00039FDC0EB4110E2E7C04400083E45000873
:103BC00070B5A1FB025434B9294600F077F80646D7
:103BD00028B9304670BD0C2202600026F9E72A465B
:103BE0002146FDF717FEF4E738B50546002941D018
:103BF00051F8043C0C1F002BB8BFE41800F00EFB7A
:103C00001D4A136833B9636014602846BDE8384024
:103C100000F00ABBA34208D9206821188B4201BFDB
:103C200019685B6809182160EDE71A465B680BB1FB
:103C3000A342FAD911685018A0420BD12068014460
:103C4000501883421160E0D118685B6853600844E3
:103C50001060DAE702D90C232B60D6E72068211820
:103C60008B4204BF19685B68636004BF0918216058
:103C70005460CAE738BD00BF0002002070B50E4E88
:103C80000C463168054611B900F0E2F93060214672
:103C9000284600F0DDF9431C0AD0C41C24F00304BC
:103CA000A04207D0211A284600F0D2F9013001D1F4
:103CB0004FF0FF34204670BD040200202DE9F04192
:103CC000CD1C25F0030508350C2D38BF0C25002D23
:103CD000074601DBA94205D90C233B60002630468C
:103CE000BDE8F0812E4E00F099FA33681C4634BBD3
:103CF00029463846FFF7C2FF431C04464DD13468BD
:103D00002646002E40D123683146384604EB03088E
:103D100000F09EF980453AD123680335ED1A25F06D
:103D2000030508350C2D38BF0C2529463846FFF70A
:103D3000A5FF01302BD023682B4423600EE02268BE
:103D4000521B1ED40B2A16D96119A342256018BF35
:103D50005960636808BF316062514B60384604F1B6
:103D60000B0600F061FA26F00706231DF21AB6D002
:103D70009B1BA350B3E76268A3420CBF32605A603A
:103D8000ECE723466468B2E734467668B9E70C236B
:103D90003B60384600F048FAA1E72560DEE700BF47
:103DA000000200209368013B002B10B4936007DAF7
:103DB0009469A34201DB0A2902D110BCFEF71ABAAA
:103DC0001368581C10601970084610BC7047F8B58D
:103DD00006460F461446D518AC4201D1002007E034
:103DE00014F8011B3A463046FFF7DCFF431CF3D1C1
:103DF000F8BD00002DE9F04F0D469DB014469846E1
:103E0000064618B183690BB9FFF730FA884B9D421B
:103E10001BD175686B6ED90705D4AB899A0502D49E
:103E2000A86DFFF7C6FAAB891B0701D52B69EBB963
:103E300029463046FEF730FAC0B16B6EDC070ED56E
:103E40004FF0FF301DB0BDE8F08F7A4B9D4201D19D
:103E5000B568DFE7784B9D4208BFF568DAE7AB89C4
:103E60009805EDD4A86DFFF7A5FAE9E700230993BB
:103E700020238DF82930CDF80C803023DFF8BC8169
:103E80008DF82A304FF0010923469A4613F8012B8A
:103E90000AB1252AF9D1BAEB040B0BD05B462246B6
:103EA00029463046FFF793FF013000F0A880099AB9
:103EB0005A4409929AF80030002B00F0A0800023A9
:103EC0004FF0FF32CDE905230AF1010A049307936D
:103ED0008DF853301A935446584814F8011B0522A4
:103EE000FCF76EF9049BD0B9D90644BF20228DF8A7
:103EF00053201A0744BF2B228DF853209AF8002034
:103F00002A2A14D0079A544600204FF00A0C214662
:103F100011F8013B303B092B4CD970B914E0A0EBF0
:103F2000080009FA00F018430490A246D3E7039A68
:103F3000111D12680391002A01DB079204E052422E
:103F400043F002030792049323782E2B0CD163785D
:103F50002A2B34D1039B1A1D1B680392002BB8BF78
:103F60004FF0FF3302340593DFF8D4A02178032209
:103F70005046FCF725F938B1049BA0EB0A0040221B
:103F8000824013430134049314F8011B2D488DF82B
:103F900028100622FCF714F900283FD02A4B1BBB3F
:103FA000039B073323F0070308330393099B3B4428
:103FB000099369E70CFB02320C460120A7E70023B6
:103FC0000134059319464FF00A0C204610F8012BD6
:103FD000303A092A03D9002BC6D00591C4E70CFB5F
:103FE000012104460123F0E703AB00932A46174B57
:103FF00004A93046FDF7B4FC0746781CD6D16B6E99
:10400000D90705D4AB899A0502D4A86DFFF7D2F978
:10401000AB895B063FF514AF099813E703AB009338
:104020002A460A4B04A93046FDF734FFE4E700BFF7
:10403000F444000814450008D444000884460008ED
:104040008A4600088E46000861190008CF3D000826
:1040500038B5064D0023044608462B6000F080F971
:10406000431C02D12B6803B1236038BD0802002035
:1040700010B50C46B1F90E1000F0DCF80028ABBF0B
:10408000636DA3891B1823F48053ACBF6365A381C0
:1040900010BD2DE9F0411F468B89DB0505460C4616
:1040A000164605D5B1F90E100223002200F0A4F83F
:1040B000A389B4F90E1023F48053A38132463B4602
:1040C0002846BDE8F04100F023B810B50C46B1F920
:1040D0000E1000F091F8431CA38915BF606523F40E
:1040E000805343F48053A38118BFA38110BDB1F95D
:1040F0000E1000F03DB80346084641B1FF2A04D92E
:104100008A221A604FF0FF3070470A700120704712
:1041100038B5074D04460846114600222A601A4663
:10412000FDF778F9431C02D12B6803B1236038BD39
:10413000080200201FB514461A46094B1B680546A5
:10414000D8684CB1074B0091CDE9013406492B46A4
:1041500000F01EF800F080F8044B1C46F3E700BFA7
:104160000400002095460008A2460008EE4300081F
:1041700038B5064D0023044608462B6000F0B8F819
:10418000431C02D12B6803B1236038BD0802002014
:104190000EB403B5014603AB054853F8042B006881
:1041A0000193FFF727FE02B05DF804EB03B0704700
:1041B0000400002038B5074D002304460846114688
:1041C0002B6000F09DF8431C02D12B6803B12360E3
:1041D00038BD00BF0802002038B5064D0023044654
:1041E00008462B6000F09CF8431C02D12B6803B1F9
:1041F000236038BD0802002038B5074D0446084644
:10420000114600222A601A4600F09AF8431C02D197
:104210002B6803B1236038BD080200200148FFF776
:10422000C8B800BFFC0100200148FFF7C3B800BFB9
:10423000FC01002038B5074D04460846114600220F
:104240002A601A4600F084F8431C02D12B6803B19F
:10425000236038BD0802002008B5062000F02CF8C5
:10426000012000F08BF81F2938B504460D4604D90B
:10427000162303604FF0FF3038BD426C12B152F884
:1042800021304BB9204600F031F82A46014620463D
:10429000BDE8384000F018B8012B0AD0591C03D1F2
:1042A000162303600120E7E7002442F82540284652
:1042B00098470020E0E70000024B01461868FFF72E
:1042C000D2BF00BF0400002038B5074D00230446CC
:1042D000084611462B6000F02BF8431C02D12B68D6
:1042E00003B1236038BD00BF0802002000F010B801
:1042F000024B58221A604FF0FF307047080200202E
:10430000024B58221A604FF0FF307047080200201D
:10431000024B58221A604FF0FF307047080200200D
:10432000024B58221A600020704700BF080200208C
:10433000024B58221A604FF0FF30704708020020ED
:10434000024B58221A604FF0FF30704708020020DD
:10435000024B58221A604FF0FF30704708020020CD
:10436000044A05491368002B08BF0B461844106027
:10437000184670470C02002010020020FEE700BF24
:10438000F8B500BFF8BC08BC9E467047F8B500BF42
:08439000F8BC08BC9E46704712
:1043980000000000000000000102030406070809ED
:1043A80000000000010203048000000000070D0A5D
:1043B8002D2D2D2D2D2D2D2D2D2D204744333246DD
:1043C800347878202D2D2D2D2D2D2D2D2D2D2D0DA5
:1043D80000676574207379737469636B206D733A31
:1043E80020256C660D0A004D505536303530206951
:1043F80073207265616479210D004D505536303552
:1044080030206973206E6F74207265616479210DA4
:104418000000000008000020494E4600696E660052
:104428004E414E006E616E0030003031323334350B
:104438003637383941424344454600303132333407
:10444800353637383961626364656600496E666976
:104458006E697479004E614E005245454E54206D88
:10446800616C6C6F63207375636365656465640074
:104478002E2E2F2E2E2F2E2E2F2E2E2F2E2E2F2E4F
:104488002E2F2E2E2F2E2E2F6E65776C69622D34CF
:104498002E322E302E32303231313233312F6E659A
:1044A800776C69622F6C6962632F7374646C6962DC
:1044B8002F64746F612E630042616C6C6F632073AC
:1044C80075636365656465640000000000000000B2
:1044D80000000000000000000000000000000000D4
:1044E80000000000000000000000000000000000C4
:1044F80000000000000000000000000000000000B4
:1045080000000000000000000000000000000000A3
:104518000000000000000000000000000000000093
:104528000000000000000000000000004300504FA1
:10453800534958002E002E2E2F2E2E2F2E2E2F2E82
:104548002E2F2E2E2F2E2E2F2E2E2F2E2E2F6E6507
:10455800776C69622D342E322E302E323032313162
:104568003233312F6E65776C69622F6C6962632F05
:104578007374646C69622F6D707265632E630000DA
:104588000080E03779C34143176E05B5B5B8934647
:10459800F5F93FE9034F384D321D30F94877825A13
:1045A8003CBF737FDD4F1575000000000000F03F31
:1045B80000000000000024400000000000005940F6
:1045C8000000000000408F40000000000088C34049
:1045D80000000000006AF8400000000080842E41BE
:1045E80000000000D01263410000000084D797410A
:1045F8000000000065CDCD41000000205FA0024210
:10460800000000E876483742000000A2941A6D4284
:10461800000040E59C30A2420000901EC4BCD64277
:1046280000003426F56B0C430080E03779C3414322
:1046380000A0D8855734764300C84E676DC1AB4398
:10464800003D9160E458E143408CB5781DAF1544B6
:1046580050EFE2D6E41A4B4492D54D06CFF0804491
:10466800F64AE1C7022DB544B49DD9794378EA44A6
:1046780005000000190000007D000000232D302BEC
:104688002000686C4C00656667454647002C20662C
:10469800756E6374696F6E3A200061737365727426
:1046A800696F6E2022257322206661696C65643A01
:1046B8002066696C6520222573222C206C696E6542
:1046C800202564257325730A00002020202020203F
:1046D80020202028282828282020202020202020AA
:1046E80020202020202020202020881010101010AA
:1046F80010101010101010101010040404040404FA
:1047080004040404101010101010104141414141DC
:104718004101010101010101010101010101010141
:1047280001010101011010101010104242424242D2
:104738004202020202020202020202020202020211
:1047480002020202021010101020000000000000F7
:104758000000000000000000000000000000000051
:104768000000000000000000000000000000000041
:104778000000000000000000000000000000000031
:104788000000000000000000000000000000000021
:104798000000000000000000000000000000000011
:1047A8000000000000000000000000000000000001
:1047B80000000000000000000000000000000000F1
:0C47C800000000000000000000000000E5
:0447D400AD0B000821
:0447D800890B000841
:1047DC0000C2EB0B0800002000000000F4440008AD
:1047EC0014450008D444000800000000000000003C
:1047FC0000000000000000000000000000000000AD
:10480C00000000000000000000000000000000009C
:10481C00000000000000000000000000000000008C
:10482C00000000000000000000000000000000007C
:10483C000000000000000000430000000000000029
:10484C00000000000000000000000000000000005C
:10485C000000000000000000430000000000000009
:10486C00000000000000000000000000000000003C
:10487C0000000000000000004300000000000000E9
:10488C00000000000000000000000000000000001C
:10489C0000000000000000004300000000000000C9
:1048AC0000000000000000000000000000000000FC
:1048BC0000000000000000004300000000000000A9
:1048CC0000000000000000000000000000000000DC
:1048DC000000000000000000430000000000000089
:1048EC0000000000000000000000000000000000BC
:1048FC000000000000000000430000000000000069
:10490C00000000000000000000000000000000009B
:10491C000000000000000000F7400008953400087B
:10492C0000000000D14600083C450008EE4300089A
:10493C00EE430008EE430008EE430008EE43000887
:10494C00EE430008EE430008EE430008EE43000877
:10495C00FFFFFFFFFFFFFFFFFFFFFFFFFFFF000059
:10496C0001004153434949000000000000000000D1
:10497C00000000000000000000000000000000002B
:10498C0000004153434949000000000000000000B2
:10499C00000000000000000000000000000000000B
:0449AC000000000007
:040000050800178157
:00000001FF
